:02004100AD0709
:10004300E4FBEBC394087480948050237E00748097
:10005300A803088006CEA2E713CE13D8F8FFEDF568
:1000630082EF558224FF92B4D2B6C2B60B80D3D2AC
:03007300B5C2B55E
:010076002267
:10007700AE05AC07AF06120041AF04A807748008AD
:100087008002C313D8FCF4F5807F017E0012009B29
:040097007580FF224F
:10000300C2B6C2B57D3CE4FF1200777D427F011288
:1000130000777DA97F021200777D857F0312007729
:100023007D857F041200777DA97F051200777D42CD
:0E0033007F061200777D3C7F0712007780C6A3
:10009B00EF4E600F7D027CC7DCFEDDFCEF1F70F0C6
:0300AB001E80EDC7
:0100AE00222F
:030000000200AF4C
:0C00AF00787FE4F6D8FD7581070200039D
:00000001FF
