:1009FB0020200020202D20202D20200020203A20F8
:050A0B00203A2020004C
:1007C800120521E518FB7A00750C027D017F0112E4
:1007D8000961E519FB7A00750C027D047F01120995
:1007E80061E51AFB7A00750C027D077F0112096129
:1007F800E51BFB7A00750C027D017F02120961E599
:100808001CFB7A00750C027D047F02120961E51D4C
:0D081800FB7A00750C027D077F020209616A
:10000E00AF237E00EF6402700B0522E52275F00629
:10001E008485F022EF64034E60030200EE7418250F
:10002E0022F806D3E5189463748094804003E4F5B7
:10003E0018D3E519940C748094804003751901AFA0
:10004E0019EF64016019EF64036014EF6405600F2B
:10005E00EF6407600AEF64086005EF640C700DD35F
:10006E00E51A941F74809480404C8047AF19EF645A
:10007E0004600FEF6406600AEF64096005EF640B1D
:10008E00700DD3E51A941E7480948040298024E567
:10009E001964027021E5185403700DD3E51A941DEE
:1000AE00748094804010800BD3E51A941C74809455
:1000BE00804003751A01D3E51B9417748094804019
:1000CE0003E4F51BD3E51C943B748094804003E459
:1000DE00F51CD3E51D943B748094804003E4F51D1C
:1000EE00E523640460030201E274182522F816C3A6
:1000FE00748094805003751863C3E519940174805D
:10010E009480500375190CAF19EF64016019EF64F8
:10011E00036014EF6405600FEF6407600AEF640874
:10012E006005EF640C701BC3E51A94017480948013
:10013E005003751A1FD3E51A941F7480948040766D
:10014E008071AF19EF6404600FEF6406600AEF640C
:10015E00096005EF640B701BC3E51A94017480945B
:10016E00805003751A1ED3E51A941E748094804035
:10017E00458040E5196402703DE5185403701BC3B9
:10018E00E51A9401748094805003751A1DD3E51AF4
:10019E00941D74809480401E8019C3E51A940174D6
:1001AE008094805003751A1CD3E51A941C748094A5
:1001BE00804003751A01C3748094805003751B1719
:1001CE00C3748094805003751C3BC374809480501C
:1001DE0003751D3BE5227015E5216401700F7BFF51
:1001EE007A0979FB7D017F01120985800FE518FBE5
:1001FE007A00750C027D017F01120961E52264010E
:10020E007015E5216401700F7BFF7A0979FB7D047F
:10021E007F01120985800FE519FB7A00750C027DAE
:10022E00047F01120961E52264027015E521640163
:10023E00700F7BFF7A0979FB7D077F01120985809C
:10024E000FE51AFB7A00750C027D077F011209611A
:10025E00E52264037015E5216401700F7BFF7A09B6
:10026E0079FB7D017F02120985800FE51BFB7A0069
:10027E00750C027D017F02120961E522640470157E
:10028E00E5216401700F7BFF7A0979FB7D047F0203
:10029E00120985800FE51CFB7A00750C027D047F28
:1002AE0002120961E52264057015E5216401700FE3
:1002BE007BFF7A0979FB7D077F02120985800FE5A6
:1002CE001DFB7A00750C027D077F02120961E52283
:1002DE00FB7A00750C017D107F01120961E521FB8F
:0C02EE007A00750C017D107F020209618E
:1006A800120A101200031209E47BFF7A0979FE7D11
:1006B800017F011209857BFF7A0A79077D017F0294
:1006C8001209851202FA1207098F23EF6401701FBD
:1006D800AF24FEEF70057524018014EF64014E709D
:1006E8000EF5241202FA7D807C007F8E12063FE50B
:1006F800241460080470CF1207C880CA12000E8044
:01070800C52B
:03000B000208F7F1
:0908F700C0E0C0D075D000C007BC
:10090000758A18758CFC0520E5207002051FC394BC
:10091000F4E51F94014012751F00752000E5217059
:09092000047F0180027F008F2199
:07092900D007D0D0D0E0326E
:060A3800C2A58F80D2A7C9
:080A3E007F027EEFDEFEDFFC0B
:010A4600228D
:0A0A4700C2A6120A38C2A7020A3E36
:1009A800CFCDCFCECCCE1204CC7C007D0A1204CCA5
:0409B800ED2430FFFB
:0A09BC00D2A6120A38C2A7020A3EB2
:1009C600AE07EEFB7A0064017004ED148009EB6457
:0E09D600024A7009ED243F4480FF120A4722B6
:100A10007F38120A477F0C120A477F06120A477F67
:040A200001020A477E
:0A0A5100AC031209C6AF040209BC91
:060985008B088A09890AB3
:10098B001209C6E4FDAB08AA09A90A8D827583007A
:0C099B0012048DFF60061209BC0D80E9FB
:0109A700222D
:0A093000EF24FFFDEE34FFFC7F0A08
:08093A008E0D8F0E8C0F8D1045
:100942007F017E00E4FBEBC39510E50F6480F87431
:0E0952008098500AAC0DAD0E1204BA0B80E86E
:010960002274
:040961008A0A8B0B68
:100965001209C6AA0CEAFF7E00D394007480948015
:0F097500400D120930AC0AAD0B1209A81A80E62A
:010984002250
:040870008B828A836A
:100874001209C6C3E58364809480400D7F2B12095E
:10088400BC85831685821780107F2D1209BCC3E4B2
:100894009582F517E49583F516AA15EAFF7E00D331
:1008A400940074809480400D120930AC16AD171278
:0508B40009A81A80E60E
:0108B900221C
:040825008A278B286B
:100829001209C6AA29EAD39400748094804037EA51
:1008390024FFFDE434FFFC7F107E0012093AAC2747
:10084900AD28CFCDCFCECCCE1204CCEF540FFEC302
:10085900940A74809480EE5004243080022437FF77
:060869001209BC1A80BF59
:01086F002266
:0408BA008A2C8B2DCC
:1008BE001209C6AA2EEAFF7E00D39400748094809B
:1008CE004026EF24FFFDEE34FFFC7F0212093AAC06
:1008DE002CAD2DCFCDCFCECCCE1204CCEF540124E7
:0808EE0030FF1209BC1A80CD95
:0108F60022DF
:090A5B000718160808103A2801DA
:05000300C2B5C2B622E7
:05063A002DFDEE3CFC6B
:06063F008C088D09AB07D9
:10064500D2B5E4FDEDC394087480948050227E00F9
:100655007401A805088005C333CE33CED8F9FFEB66
:10066500F582EF558224FF92B4D2B6C2B60D80D47E
:10067500E4FDEDC394087480948050247E007401D9
:10068500A805088005C333CE33CED8F9FFE5085E4B
:10069500FEE5095F4E24FF92B4D2B6C2B60D80D2F4
:0206A500C2B5DC
:0106A7002230
:02076A00AD07D9
:10076C00E4F9430501D2B5FBEBC394087480948083
:10077C0050227E007401A803088005C333CE33CE0B
:10078C00D8F9FFEDF582EF558224FF92B4C2B6D2B0
:10079C00B60B80D4E4FBEBC39408748094805017A0
:1007AC00D2B6C2B630B40DA8037401088002C333AC
:0B07BC00D8FC42010B80DFC2B5AF018A
:0107C700220F
:1002FA00E4FDFC7F8E12063FE51875F00A12046BC6
:10030A00FF3395E0FEEFC4F8540FC868FFEEC454FB
:10031A00F048FEE51875F00A12046BADF0ED33955E
:10032A00E0FCEF7F8C12063AE51975F00A12046BAD
:10033A00FF3395E0FEEFC4F8540FC868FFEEC454CB
:10034A00F048FEE51975F00A12046BADF0ED33952D
:10035A00E0FCEF7F8812063AE51A75F00A12046B80
:10036A00FF3395E0FEEFC4F8540FC868FFEEC4549B
:10037A00F048FEE51A75F00A12046BADF0ED3395FC
:10038A00E0FCEF2DFDEE3CFC7F8612063FE51B7577
:10039A00F00A12046BFF3395E0FEEFC4F8540FC85D
:1003AA0068FFEEC454F048FEE51B75F00A12046BB0
:1003BA00ADF0ED3395E0FCEF2DFDEE3CFC7F8412B1
:1003CA00063FE51C75F00A12046BFF3395E0FEEF59
:1003DA00C4F8540FC868FFEEC454F048FEE51C7513
:1003EA00F00A12046BADF0ED3395E0FCEF2DFDEE53
:1003FA003CFC7F8212063FE51D75F00A12046BFF72
:10040A003395E0FEEFC4F8540FC868FFEEC454F009
:10041A0048FEE51D75F00A12046BADF0ED3395E068
:10042A00FCEF2DFDEE3CFC7F8012063FE51E75F0C9
:10043A000A12046BFF3395E0FEEFC4F8540FC86844
:10044A00FFEEC454F048FEE51E75F00A12046BADC7
:10045A00F0ED3395E0FCEF2DFDEE3CFC7F8A0206C1
:01046A003F52
:100521007F8C12076AEFC4540F75F00AA4FEEF54D2
:100531000F2EF5187F8812076AEFC4540F75F00A61
:10054100A4FEEF540F2EF5197F8612076AEFC454EB
:100551000F75F00AA4FEEF540F2EF51A7F841207CF
:100561006AEFC4540F75F00AA4FEEF540F2EF51B69
:100571007F8212076AEFC4540F75F00AA4FEEF548C
:100581000F2EF51C7F8012076AEFC4540F75F00A15
:10059100A4FEEF540F2EF51D7F8A12076AEFC45493
:0C05A1000F75F00AA4FEEF540F2EF51E9B
:0105AD00222B
:100A2400EF4E600F7D027CC7DCFEDDFCEF1F70F033
:030A34001E80ED34
:010A3700229C
:10070900E4F50820B1137F14FE120A2430B1FD7FED
:10071900147E00120A2475080120B0147F147E008B
:10072900120A2430B0FD7F147E00120A24750802D3
:1007390020B2147F147E00120A2430B2FD7F147E89
:1007490000120A2475080320B3147F147E00120ACC
:100759002430B3FD7F147E00120A24750804AF0803
:01076900226D
:1009E4005389F0438901C28DD28C758CFC758A17AA
:0709F400D2A9D2AFC2B92263
:030000000205AE48
:0C05AE00787FE4F6D8FD75812E0205F57B
:10046B00C2D530F707B2D563F0FF05F030E70CB219
:10047B00D5F4048463F0FF05F080018430D502F4D9
:02048B00042249
:10048D00BB010CE58229F582E5833AF583E0225024
:10049D0006E92582F8E622BBFE06E92582F8E2226E
:0D04AD00E58229F582E5833AF583E4932288
:1004BA00EF8DF0A4A8F0CF8CF0A428CE8DF0A42E56
:0204CA00FE2210
:1004CC00BC000BBE0029EF8DF084FFADF022E4CC14
:1004DC00F875F008EF2FFFEE33FEEC33FCEE9DECDD
:1004EC00984005FCEE9DFE0FD5F0E9E4CEFD22ED23
:1004FC00F8F5F0EE8420D21CFEADF075F008EF2F6D
:10050C00FFED33FD4007985006D5F0F222C398FD5D
:05051C000FD5F0EA22FA
:1005BA000206A8E493A3F8E493A34003F68001F2A9
:1005CA0008DFF48029E493A3F85407240CC8C33342
:1005DA00C4540F4420C8834004F456800146F6DF11
:1005EA00E4800B0102040810204080900A5BE47E3C
:1005FA00019360BCA3FF543F30E509541FFEE49306
:10060A00A360010ECF54C025E060A840B8E493A3CC
:10061A00FAE493A3F8E493A3C8C582C8CAC583CAF7
:10062A00F0A3C8C582C8CAC583CADFE9DEE780BEAF
:010A64000091
:00000001FF
