:10010F002030080000000000000000FF101010FF5A
:10011F0000FF9191919100FF01010100FF01010189
:10012F0000FF818181FF00FD00FD00000000000045
:03013F00000000BD
:10008F00E4F539F53A12017BE4F538C3E538940805
:10009F00748094805012E53825392408F8E6FDAFB6
:1000AF0038120143053880E3053AD3E53A940A74D0
:1000BF0080948040D3E4F53A0539D3E53994207420
:0A00CF0080948040C3E4F53980BE40
:10016700EF4E600F7D027CC7DCFEDDFCEF1F70F0F9
:030177001E80EDFA
:01017A002262
:05017B00C2B6C2B5226E
:0200D900AD0771
:1000DB00E4FBEBC394087480948050237E007480FF
:1000EB00A803088006CEA2E713CE13D8F8FFEDF5D0
:1000FB0082EF558224FF92B4D2B6C2B60B80D3D214
:03010B00B5C2B5C5
:01010E0022CE
:10014300AE05AC07AF061200D9AF04A80774800848
:100153008002C313D8FCF4F5807F017E001201678F
:040163007580FF2282
:03000000020003F8
:0C000300787FE4F6D8FD75813A02004ACF
:10000F0002008FE493A3F8E493A34003F68001F278
:10001F0008DFF48029E493A3F85407240CC8C333F2
:10002F00C4540F4420C8834004F456800146F6DFC1
:10003F00E4800B010204081020408090010FE47E41
:10004F00019360BCA3FF543F30E509541FFEE493B6
:10005F00A360010ECF54C025E060A840B8E493A37D
:10006F00FAE493A3F8E493A3C8C582C8CAC583CAA8
:10007F00F0A3C8C582C8CAC583CADFE9DEE780BE60
:0101420000BC
:00000001FF
