:040067007F0F7E0089
:10006B00EF4E600F7D027CC7DCFEDDFCEF1F70F0F6
:03007B001E80EDF7
:01007E00225F
:1000030075A0FE20B13012006730B1FD1200670504
:1000130008AF08EF3395E0FEC3EF9408EE648094D5
:10002300804003E4F508AF08A8077401088002C301
:1000330033D8FCF4F5A020B0CA12006730B0FD122B
:100043000067AF08EF3395E04F700575080780022E
:100053001508AF08A8077401088002C333D8FCF45D
:04006300F5A0809FE5
:0300000002007F7C
:0C007F00787FE4F6D8FD758108020003CC
:00000001FF
