:1005970020202D20202D20200020203A20203A2026
:0205A700200032
:10029A0012056F1205D67BFF7A0579977D017F01DA
:1002AA001205107BFF7A0579A07D017F02120510E5
:1002BA00120003120181E518FB7A00750C027D0118
:1002CA007F011204ECE519FB7A00750C027D047FAC
:1002DA00011204ECE51AFB7A00750C027D077F0116
:1002EA001204ECE51BFB7A00750C027D017F0212F9
:1002FA0004ECE51CFB7A00750C027D047F021204F3
:10030A00ECE51DFB7A00750C027D077F021204ECF6
:02031A0080A1C0
:0605A900C2A58F80D2A75D
:0805AF007F027EEFDEFEDFFC9F
:0105B7002221
:0A05B800C2A61205A9C2A70205AFF2
:10053300CFCDCFCECCCE12012C7C007D0A12012C64
:04054300ED2430FF74
:0A054700D2A61205A9C2A70205AF53
:10055100AE07EEFB7A0064017004ED148009EB64D0
:0E056100024A7009ED243F4480FF1205B822C3
:10056F007F381205B87F0C1205B87F061205B87FC9
:04057F00010205B8B8
:0A05C200AC03120551AF0402054717
:060510008B088A09890A2C
:10051600120551E4FDAB08AA09A90A8D827583006C
:0C0526001200EDFF60061205470D80E991
:0105320022A6
:0A04BB00EF24FFFDEE34FFFC7F0A82
:0804C5008E0D8F0E8C0F8D10BF
:1004CD007F017E00E4FBEBC39510E50F6480F874AB
:0E04DD008098500AAC0DAD0E12011A0B80E88B
:0104EB0022EE
:0404EC008A0A8B0BE2
:1004F000120551AA0CEAFF7E00D394007480948008
:0F050000400D1204BBAC0AAD0B1205331A80E696
:01050F0022C9
:040434008B828A83AA
:10043800120551C3E58364809480400D7F2B12051B
:100448004785831685821780107F2D120547C3E4E0
:100458009582F517E49583F516AA15EAFF7E00D371
:10046800940074809480400D1204BBAC16AD171232
:0504780005331A80E6C7
:01047D00225C
:0403E9008A218B22B8
:1003ED00120551AA23EAD39400748094804037EA11
:1003FD0024FFFDE434FFFC7F107E001204C5AC2108
:10040D00AD22CFCDCFCECCCE12012CEF540FFEC3EB
:10041D00940A74809480EE5004243080022437FFB7
:06042D001205471A80BF12
:0104330022A6
:04047E008A268B2718
:10048200120551AA28EAFF7E00D39400748094805A
:100492004026EF24FFFDEE34FFFC7F021204C5ACC0
:1004A20026AD27CFCDCFCECCCE12012CEF540124D6
:0804B20030FF1205471A80CD4E
:0104BA00221F
:0905CC000718160808103A28016E
:0505D600C2B5C2B6220F
:06031C0025F0FDEC3EFCA3
:060322008C088D09AB07F9
:10032800D2B5E4FDEDC394087480948050227E0019
:100338007401A805088005C333CE33CED8F9FFEB86
:10034800F582EF558224FF92B4D2B6C2B60D80D49E
:10035800E4FDEDC394087480948050247E007401F9
:10036800A805088005C333CE33CED8F9FFE5085E6B
:10037800FEE5095F4E24FF92B4D2B6C2B60D80D214
:02038800C2B5FC
:01038A002250
:02038B00AD07BC
:10038D00E4F9430501D2B5FBEBC394087480948066
:10039D0050227E007401A803088005C333CE33CEEE
:1003AD00D8F9FFEDF582EF558224FF92B4C2B6D293
:1003BD00B60B80D4E4FBEBC3940874809480501783
:1003CD00D2B6C2B630B40DA8037401088002C3338F
:0B03DD00D8FC42010B80DFC2B5AF016D
:0103E80022F2
:10000300E4FDFC7F8E120322E51875F00A8475F077
:1000130010A4FFAEF0E51875F00A84EF7F8C12038D
:100023001CE51975F00A8475F010A4FFAEF0E5190C
:1000330075F00A847C00EF7F8812031CE51A75F0C3
:100043000A8475F010A4FFAEF0E51A75F00A847CFB
:1000530000EF25F0FDEC3EFC7F86120322E51B75C5
:10006300F00A8475F010A4FFAEF0E51B75F00A8466
:100073007C00EF25F0FDEC3EFC7F84120322E51C9F
:1000830075F00A8475F010A4FFAEF0E51C75F00A54
:10009300847C00EF25F0FDEC3EFC7F82120322E519
:1000A3001D75F00A8475F010A4FFAEF0E51D75F020
:1000B3000A847C00EF25F0FDEC3EFC7F80120322D6
:1000C300E51E75F00A8475F010A4FFAEF0E51E7509
:1000D300F00A847C00EF25F0FDEC3EFC7F8A1203DE
:0A00E300227D807C007F8E02032244
:100181007F8C12038BEFC4540F75F00AA4FEEF5459
:100191000F2EF5187F8812038BEFC4540F75F00AE8
:1001A100A4FEEF540F2EF5197F8612038BEFC45472
:1001B1000F75F00AA4FEEF540F2EF51A7F84120377
:1001C1008BEFC4540F75F00AA4FEEF540F2EF51BEC
:1001D1007F8212038BEFC4540F75F00AA4FEEF5413
:1001E1000F2EF51C7F8012038BEFC4540F75F00A9C
:1001F100A4FEEF540F2EF51D7F8A12038BEFC4541A
:0C0201000F75F00AA4FEEF540F2EF51E3E
:01020D0022CE
:10058300EF4E600F7D027CC7DCFEDDFCEF1F70F0D9
:030593001E80EDDA
:010596002242
:0300000002020EEB
:0C020E00787FE4F6D8FD758128020255C7
:1000ED00BB010CE58229F582E5833AF583E02250C8
:1000FD0006E92582F8E622BBFE06E92582F8E22212
:0D010D00E58229F582E5833AF583E493222B
:10011A00EF8DF0A4A8F0CF8CF0A428CE8DF0A42EF9
:02012A00FE22B3
:10012C00BC000BBE0029EF8DF084FFADF022E4CCB7
:10013C00F875F008EF2FFFEE33FEEC33FCEE9DEC80
:10014C00984005FCEE9DFE0FD5F0E9E4CEFD22EDC6
:10015C00F8F5F0EE8420D21CFEADF075F008EF2F10
:10016C00FFED33FD4007985006D5F0F222C398FD01
:05017C000FD5F0EA229E
:10021A0002029AE493A3F8E493A34003F68001F25E
:10022A0008DFF48029E493A3F85407240CC8C333E5
:10023A00C4540F4420C8834004F456800146F6DFB4
:10024A00E4800B01020408102040809005CCE47E73
:10025A00019360BCA3FF543F30E509541FFEE493A9
:10026A00A360010ECF54C025E060A840B8E493A370
:10027A00FAE493A3F8E493A3C8C582C8CAC583CA9B
:10028A00F0A3C8C582C8CAC583CADFE9DEE780BE53
:0105D5000025
:00000001FF
