:09044E00436C6F636B3A003A0045
:09043000011A32011C3A011B16ED
:10000E0012040D1203E27BFF7A04794E7D017F010B
:10001E001203837BFF7A0479557D037F02120383DB
:10002E007BFF7A0479557D067F02120383E51BFB65
:10003E007A00750C027D017F0212035FE51CFB7ACC
:10004E0000750C027D047F0212035FE51AFB7A0035
:10005E00750C027D077F0212035F20B1237F147E91
:10006E00001203F930B1FD7F147E001203F9D3E5BF
:10007E001B9416748094805004051B8003E4F51BBA
:10008E0020B0237F147E001203F930B0FD7F147E62
:10009E00001203F9D3E51C943A7480948050040541
:1000AE001C8003E4F51C20B2847F147E001203F939
:1000BE0030B2FD7F147E001203F9D3E51A943A7420
:1000CE008094805005051A02003BE4F51A02003BAD
:03000B000201FEF1
:0401FE00C0E0C0D0CD
:10020200758CFC758A170519E51970020518C394D7
:10021200E8E51864809483403C751800751900D392
:10022200E51A943A748094805004051A8027D3E525
:100232001C943A748094805004051C8015D3E51BED
:100242009416748094805004051B8003751B0075FE
:050252001C00751A00FC
:05025700D0D0D0E03220
:1003F900EF4E600F7D027CC7DCFEDDFCEF1F70F065
:030409001E80ED65
:01040C0022CD
:06042100C2A58F80D2A7E6
:080427007F027EEFDEFEDFFC28
:01042F0022AA
:0A043A00C2A6120421C2A702042783
:1003A600CFCDCFCECCCE12011D7C007D0A12011D11
:0403B600ED2430FF03
:0A03BA00D2A6120421C2A7020427F4
:1003C400AE07EEFB7A0064017004ED148009EB645F
:0E03D400024A7009ED243F4480FF12043A22D1
:10040D007F3812043A7F0C12043A7F0612043A7FA9
:04041D000102043A9A
:0A044400AC031203C4AF040203BAB4
:060383008B088A09890ABB
:100389001203C4E4FDAB08AA09A90A8D827583008A
:0C0399001200DEFF60061203BA0D80E9BE
:0103A5002235
:0A032E00EF24FFFDEE34FFFC7F0A10
:080338008E0D8F0E8C0F8D104D
:100340007F017E00E4FBEBC39510E50F6480F87439
:0E0350008098500AAC0DAD0E12010B0B80E828
:01035E00227C
:04035F008A0A8B0B70
:100363001203C4AA0CEAFF7E00D394007480948025
:0F037300400D12032EAC0AAD0B1203A61A80E642
:010382002258
:0402A7008B828A8339
:1002AB001203C4C3E58364809480400D7F2B12033B
:1002BB00BA85831685821780107F2D1203BAC3E48B
:1002CB009582F517E49583F516AA15EAFF7E00D300
:1002DB00940074809480400D12032EAC16AD17124F
:0502EB0003A61A80E6E5
:0102F00022EB
:04025C008A1F8B204A
:100260001203C4AA21EAD39400748094804037EA30
:1002700024FFFDE434FFFC7F107E00120338AC1F26
:10028000AD20CFCDCFCECCCE12011DEF540FFEC38B
:10029000940A74809480EE5004243080022437FF46
:0602A0001203BA1A80BF30
:0102A6002235
:0402F1008A248B25AB
:1002F5001203C4AA26EAFF7E00D39400748094807A
:100305004026EF24FFFDEE34FFFC7F02120338ACDC
:1003150024AD25CFCDCFCECCCE12011DEF54012477
:0803250030FF1203BA1A80CD6B
:01032D0022AD
:1003E2005389F0438901C28DD28C758CFC758A17B2
:0703F200D2A9D2AFC2B9226B
:0300000002017288
:0C017200787FE4F6D8FD7581260201B903
:1000DE00BB010CE58229F582E5833AF583E02250D7
:1000EE0006E92582F8E622BBFE06E92582F8E22221
:0D00FE00E58229F582E5833AF583E493223B
:10010B00EF8DF0A4A8F0CF8CF0A428CE8DF0A42E08
:02011B00FE22C2
:10011D00BC000BBE0029EF8DF084FFADF022E4CCC6
:10012D00F875F008EF2FFFEE33FEEC33FCEE9DEC8F
:10013D00984005FCEE9DFE0FD5F0E9E4CEFD22EDD5
:10014D00F8F5F0EE8420D21CFEADF075F008EF2F1F
:10015D00FFED33FD4007985006D5F0F222C398FD10
:05016D000FD5F0EA22AD
:10017E0002000EE493A3F8E493A34003F68001F289
:10018E0008DFF48029E493A3F85407240CC8C33382
:10019E00C4540F4420C8834004F456800146F6DF51
:1001AE00E4800B0102040810204080900430E47EAD
:1001BE00019360BCA3FF543F30E509541FFEE49346
:1001CE00A360010ECF54C025E060A840B8E493A30D
:1001DE00FAE493A3F8E493A3C8C582C8CAC583CA38
:1001EE00F0A3C8C582C8CAC583CADFE9DEE780BEF0
:0104390000C2
:00000001FF
