:10000E00000400040004160218021906180219044E
:10001E001D04180C110211021606140216041904FE
:10002E00140C110412061102120419041108000214
:10003E0019021902190218061302130418041808DB
:10004E000004160218021906180219041D04180CD1
:10005E00110211021606140216041904140C0F02D2
:10006E00110212041902180419061B021B021D02AA
:10007E00190A190218021602160218041504160C93
:10008E0019021B021D061B021D0420041B0C140268
:10009E0014021906180219041D041D101602180266
:1000AE00190418041B021B021906140A1E041D044F
:1000BE001D0419041D0C1D042208200420041D0219
:1000CE001B021908000219021B0419021B021B0451
:1000DE0020041D0C1D04220820081D021B021908F5
:1000EE00000219021B0419021B061804160C000448
:0100FE00FF02
:10018B002048090000F88CF8F3F95BF9B8FA15FA76
:10019B0067FAB9FB04FB4BFB90FBCFFC10FC44FC58
:1001AB0079FCACFCDCFD09FD34FD5CFD82FDA6FD9C
:1001BB00C8FDE8FE06FE22FE3DFE56FE6EFE9AFED2
:0B01CB00AEFEC1FED3FEE4FEF4FF0315
:10020B0012023CE50890000E93FFF460208F51051D
:10021B0008E5089375F07DA4FFAEF01202530508B4
:10022B00C28C7F057E00120253D28C80D6C28C808A
:01023B00FEC4
:03000B000201D718
:1001D700C0E0C0D075D000C000C006E55125E024BE
:1001E70009F8E6FE08E64E6012E55125E02409F815
:1001F700E6FE08E6F58AEEF58CB2A5D006D000D06B
:04020700D0D0E03241
:10023C005389F0438901C28DD28C758CFC758A1759
:07024C00D2A9D2AFC2B92212
:10025300EF4E600F7D027CC7DCFEDDFCEF1F70F00C
:030263001E80ED0D
:010266002275
:030000000200FFFC
:0C00FF00787FE4F6D8FD758151020146BF
:10010B0002020BE493A3F8E493A34003F68001F2FD
:10011B0008DFF48029E493A3F85407240CC8C333F5
:10012B00C4540F4420C8834004F456800146F6DFC4
:10013B00E4800B010204081020408090018BE47EC8
:10014B00019360BCA3FF543F30E509541FFEE493B9
:10015B00A360010ECF54C025E060A840B8E493A380
:10016B00FAE493A3F8E493A3C8C582C8CAC583CAAB
:10017B00F0A3C8C582C8CAC583CADFE9DEE780BE63
:0101D6000028
:00000001FF
