:10027C004E554D4245522042414E4B2100202020EC
:10028C00202020004552524F5221005752495445CC
:10029C00204F4B2100202020202020202020005205
:1002AC00454144204F4B210020202020202020209D
:0102BC000041
:1000030012045B7BFF7A02797C7D017F011203FC82
:100013001201868F22750C02AB24AA237D017F0275
:100023001203D8E522640170150524E52470020546
:10003300237BFF7A0279897D0C7F021203FCE52280
:100043006402701BC3E5249401E52394004010E58A
:10005300241524700215237BFF7A0279898012E527
:100063002264027013E5244523700D7BFF7A027925
:10007300907D0C7F021203FCE5226403702FAF24F2
:10008300FDFC1203B47F057E0012046F7BFF7A022E
:1000930079977D087F021203FC7FD07E0712046FDD
:1000A3007BFF7A0279A17D087F021203FCE52264BB
:1000B300046003020013FF12035C8F257BFF7A02A7
:1000C30079AB7D097F021203FCE525FB7A00750CF1
:1000D300027D057F021203D87FD07E0712046F7B57
:0F00E300FF7A0279B47D097F021203FC02001339
:0904C900D2A1D2A0C2A0C2A1225E
:0904D200C2A1C2A0D2A1D2A02255
:0202FA00A90752
:1002FC00E4FBFAAF037E007480A807088006CEA248
:10030C00E713CE13D8F8FFE9FDEF5D24FF92A0D2DE
:0E031C00A1C2A10BBB00010AEB64084A70D518
:01032A0022B0
:10038C00E4FFD2A0FDFCD2A130A00FAE05A80674EC
:10039C0080088002C313D8FC4207C2A10DBD000126
:0703AC000CED64084C70DF4A
:0103B3002227
:0A04AB00EF24FF92A0D2A1C2A1220B
:0C049200E4FFD2A0D2A130A0010FC2A153
:01049E00223B
:1003B4008F088C098D0A1204C97FA01202FA120454
:1003C40092AF0A1202FA120492AF081202FA12044D
:0403D400920204D2BB
:02035C008F0808
:10035E001204C97FA01202FA120492AF081202FA16
:10036E001204921204C97FA11202FA12049212030D
:0D037E008C8F097F011204AB1204D2AF096D
:01038B00224F
:06048300C2A58F80D2A784
:080489007F027EEFDEFEDFFCC6
:010491002248
:0A04B500C2A6120483C2A702048944
:10041F00CFCDCFCECCCE1201317C007D0A1201316F
:04042F00ED2430FF89
:0A043300D2A6120483C2A7020489B6
:10043D00AE07EEFB7A0064017004ED148009EB64E5
:0E044D00024A7009ED243F4480FF1204B522DC
:10045B007F381204B57F0C1204B57F061204B57FEA
:04046B00010204B5D1
:0A04BF00AC0312043DAF0402043345
:0603FC008B088A09890A42
:1004020012043DE4FDAB08AA09A90A8D8275830096
:0C0412001200F2FF60061204330D80E9B6
:01041E0022BB
:0A032B00EF24FFFDEE34FFFC7F0A13
:080335008E0D8F0E8C0F8D1050
:10033D007F017E00E4FBEBC39510E50F6480F8743C
:0E034D008098500AAC0DAD0E12011F0B80E817
:01035B00227F
:0403D8008A0A8B0BF7
:1003DC0012043DAA0CEAFF7E00D394007480948032
:0F03EC00400D12032BAC0AAD0B12041F1A80E652
:0103FB0022DF
:040232008B828A83AE
:1002360012043DC3E58364809480400D7F2B120435
:100246003385831685821780107F2D120433C3E40D
:100256009582F517E49583F516AA15EAFF7E00D375
:10026600940074809480400D12032BAC16AD1712C7
:05027600041F1A80E6E0
:01027B002260
:0401E7008A1A8B1BCA
:1001EB0012043DAA1CEAD39400748094804037EA31
:1001FB0024FFFDE434FFFC7F107E00120335AC1AA4
:10020B00AD1BCFCDCFCECCCE120131EF540FFEC3F1
:10021B00940A74809480EE5004243080022437FFBB
:06022B001204331A80BF2B
:0102310022AA
:0402BD008A1F8B20E9
:1002C10012043DAA21EAFF7E00D394007480948039
:1002D1004026EF24FFFDEE34FFFC7F02120335AC14
:1002E1001FAD20CFCDCFCECCCE120131EF540124A2
:0802F10030FF1204331A80CD26
:0102F90022E2
:10018600E4F50820B1137F14FE12046F30B1FD7F31
:10019600147E0012046F75080120B0147F147E00CF
:1001A60012046F30B0FD7F147E0012046F750802D2
:1001B60020B2147F147E0012046F30B2FD7F147ECD
:1001C6000012046F75080320B3147F147E00120416
:1001D6006F30B3FD7F147E0012046F750804AF08FC
:0101E60022F6
:10046F00EF4E600F7D027CC7DCFEDDFCEF1F70F0EE
:03047F001E80EDEF
:010482002257
:0300000002049F58
:0C049F00787FE4F6D8FD7581250200038B
:1000F200BB010CE58229F582E5833AF583E02250C3
:1001020006E92582F8E622BBFE06E92582F8E2220C
:0D011200E58229F582E5833AF583E4932226
:10011F00EF8DF0A4A8F0CF8CF0A428CE8DF0A42EF4
:02012F00FE22AE
:10013100BC000BBE0029EF8DF084FFADF022E4CCB2
:10014100F875F008EF2FFFEE33FEEC33FCEE9DEC7B
:10015100984005FCEE9DFE0FD5F0E9E4CEFD22EDC1
:10016100F8F5F0EE8420D21CFEADF075F008EF2F0B
:10017100FFED33FD4007985006D5F0F222C398FDFC
:050181000FD5F0EA2299
:00000001FF
