:0300D5000108001F
:1000BA0012008FAF081200CD7FE87E031200A6055A
:0300CA000880F0BB
:1000A600EF4E600F7D027CC7DCFEDDFCEF1F70F0BB
:0300B6001E80EDBC
:0100B9002224
:10008F0075984043878053890F438920758BF4758A
:07009F008DF4C2ABD28E22EA
:0800CD008F993099FDC29922C0
:03000000020003F8
:0C000300787FE4F6D8FD75810802004A01
:10000F000200BAE493A3F8E493A34003F68001F24D
:10001F0008DFF48029E493A3F85407240CC8C333F2
:10002F00C4540F4420C8834004F456800146F6DFC1
:10003F00E4800B01020408102040809000D5E47E7C
:10004F00019360BCA3FF543F30E509541FFEE493B6
:10005F00A360010ECF54C025E060A840B8E493A37D
:10006F00FAE493A3F8E493A3C8C582C8CAC583CAA8
:10007F00F0A3C8C582C8CAC583CADFE9DEE780BE60
:0100D8000027
:00000001FF
