:1000D10075A0FE1200F61200708F0AE50A60F7643F
:1000E1000170F3050BC3E50B94027480948040E624
:0500F100E4F50B80E1C5
:03000B0002000EE2
:0F000E00C0E0C0D075D000C000C004C005C0075E
:10001D00758CFC758A170509E50970020508C394EE
:10002D00F4E50864809481402D750800750900E59C
:10003D000BFD7C00700DAFA07801EF08800123D877
:10004D00FDF5A0ED64014C700DAFA07801EF0880B7
:06005D000103D8FDF5A02F
:0D006300D007D005D004D000D0D0D0E032BE
:1000F6005389F0438901C28DD28C758CFC758A17A1
:07010600D2A9D2AFC2B92259
:10007000E4F50C20B1137F14FE12010D30B1FD7FA9
:10008000147E0012010D750C0120B0147F147E0047
:1000900012010D30B0FD7F147E0012010D750C02AF
:1000A00020B2147F147E0012010D30B2FD7F147E49
:1000B0000012010D750C0320B3147F147E00120191
:1000C0000D30B3FD7F147E0012010D750C04AF0CD2
:0100D000220D
:10010D00EF4E600F7D027CC7DCFEDDFCEF1F70F053
:03011D001E80ED54
:0101200022BC
:03000000020121D9
:0C012100787FE4F6D8FD75810C0200D157
:00000001FF
