:0904250057656C636F6D652100E1
:100323001203E27BFF7A0479257D017F0112036FBB
:100333001200038F22E52260F7FB7A00750C027D21
:08034300017F0212034B80E868
:1003CE00EF4E600F7D027CC7DCFEDDFCEF1F70F090
:0303DE001E80ED91
:0103E10022F9
:0603F600C2A58F80D2A712
:0803FC007F027EEFDEFEDFFC54
:0104040022D5
:0A041100C2A61203F6C2A70203FC04
:10039200CFCDCFCECCCE1201CB7C007D0A1201CBC9
:0403A200ED2430FF17
:0A03A600D2A61203F6C2A70203FC60
:1003B000AE07EEFB7A0064017004ED148009EB6473
:0E03C000024A7009ED243F4480FF120411220E
:1003E2007F381204117F0C1204117F061204117F50
:0403F20001020411EF
:0A041B00AC031203B0AF040203A605
:06036F008B088A09890ACF
:100375001203B0E4FDAB08AA09A90A8D82758300B2
:0C03850012018CFF60061203A60D80E937
:010391002249
:0A02F200EF24FFFDEE34FFFC7F0A4D
:0802FC008E0D8F0E8C0F8D108A
:100304007F017E00E4FBEBC39510E50F6480F87475
:0E0314008098500AAC0DAD0E1201B90B80E8B6
:0103220022B8
:04034B008A0A8B0B84
:10034F001203B0AA0CEAFF7E00D39400748094804D
:0F035F00400D1202F2AC0AAD0B1203921A80E6A7
:01036E00226C
:04026B008B828A8375
:10026F001203B0C3E58364809480400D7F2B12038B
:10027F00A685831685821780107F2D1203A6C3E4EF
:10028F009582F517E49583F516AA15EAFF7E00D33C
:10029F00940074809480400D1202F2AC16AD1712C8
:0502AF0003921A80E635
:0102B4002227
:040220008A1A8B1B90
:100224001203B0AA1CEAD39400748094804037EA85
:1002340024FFFDE434FFFC7F107E001202FCAC1AA4
:10024400AD1BCFCDCFCECCCE1201CBEF540FFEC31E
:10025400940A74809480EE5004243080022437FF82
:060264001203A61A80BF80
:01026A002271
:0402B5008A1F8B20F1
:1002B9001203B0AA21EAFF7E00D3940074809480CF
:1002C9004026EF24FFFDEE34FFFC7F021202FCAC56
:1002D9001FAD20CFCDCFCECCCE1201CBEF54012410
:0802E90030FF1203A61A80CDBC
:0102F10022EA
:10000300E4F5087590FFC2932097137F14FE120343
:10001300CE3097FD7F147E001203CE750801209623
:10002300147F147E001203CE3096FD7F147E0012DF
:1000330003CE7508052095147F147E001203CE307D
:1000430095FD7F147E001203CE7508092094147F5A
:10005300147E001203CE3094FD7F147E001203CE73
:1000630075080D7590FFC2922097147F147E0012BD
:1000730003CE3097FD7F147E001203CE7508022055
:1000830096147F147E001203CE3096FD7F147E00FB
:100093001203CE7508062095147F147E001203CE3A
:1000A3003095FD7F147E001203CE75080A20941448
:1000B3007F147E001203CE3094FD7F147E00120362
:1000C300CE75080E7590FFC2912097147F147E00A1
:1000D3001203CE3097FD7F147E001203CE75080302
:1000E3002096147F147E001203CE3096FD7F147E7B
:1000F300001203CE7508072095147F147E001203A7
:10010300CE3095FD7F147E001203CE75080B20942C
:10011300147F147E001203CE3094FD7F147E0012F0
:1001230003CE75080F7590FFC2902097147F147E3D
:10013300001203CE3097FD7F147E001203CE7508A4
:10014300042096147F147E001203CE3096FD7F1494
:100153007E001203CE7508082095147F147E0012CA
:1001630003CE3095FD7F147E001203CE75080C205C
:1001730094147F147E001203CE3094FD7F147E000E
:080183001203CE750810AF084D
:01018B002251
:03000000020405F2
:0C040500787FE4F6D8FD75812202032305
:10018C00BB010CE58229F582E5833AF583E0225028
:10019C0006E92582F8E622BBFE06E92582F8E22272
:0D01AC00E58229F582E5833AF583E493228C
:1001B900EF8DF0A4A8F0CF8CF0A428CE8DF0A42E5A
:0201C900FE2214
:1001CB00BC000BBE0029EF8DF084FFADF022E4CC18
:1001DB00F875F008EF2FFFEE33FEEC33FCEE9DECE1
:1001EB00984005FCEE9DFE0FD5F0E9E4CEFD22ED27
:1001FB00F8F5F0EE8420D21CFEADF075F008EF2F71
:10020B00FFED33FD4007985006D5F0F222C398FD61
:05021B000FD5F0EA22FE
:00000001FF
