:0602890048656C6C6F007B
:10019A001202467B417D017F0112027F7BFF7A02B8
:1001AA0079897D037F011201E7750C017B067A00CC
:0901BA007D097F011201C380FEE2
:06025A00C2A58F80D2A7AF
:080260007F027EEFDEFEDFFCF1
:010268002273
:0A027500C2A612025AC2A7020260DC
:10020A00CFCDCFCECCCE1200427C007D0A12004266
:04021A00ED2430FFA0
:0A021E00D2A612025AC2A702026023
:10022800AE07EEFB7A0064017004ED148009EB64FC
:0E023800024A7009ED243F4480FF1202752235
:100246007F381202757F0C1202757F061202757FC7
:04025600010202752A
:0A027F00AC03120228AF0402021EB5
:0601E7008B088A09890A59
:1001ED00120228E4FDAB08AA09A90A8D82758300C5
:0C01FD00120003FF600612021E0D80E9D4
:0102090022D2
:0A016900EF24FFFDEE34FFFC7F0AD7
:080173008E0D8F0E8C0F8D1014
:10017B007F017E00E4FBEBC39510E50F6480F87400
:0E018B008098500AAC0DAD0E1200300B80E8CB
:010199002243
:0401C3008A0A8B0B0E
:1001C700120228AA0CEAFF7E00D394007480948060
:0F01D700400D120169AC0AAD0B12020A1A80E644
:0101E60022F6
:0400E2008B828A8300
:1000E600120228C3E58364809480400D7F2B1202A0
:1000F6001E85831685821780107F2D12021EC3E48B
:100106009582F517E49583F516AA15EAFF7E00D3C6
:10011600940074809480400D120169AC16AD1712DC
:05012600020A1A80E648
:01012B0022B1
:040097008A1A8B1B1B
:10009B00120228AA1CEAD39400748094804037EA99
:1000AB0024FFFDE434FFFC7F107E00120173AC1AB9
:1000BB00AD1BCFCDCFCECCCE120042EF540FFEC333
:1000CB00940A74809480EE5004243080022437FF0D
:0600DB0012021E1A80BF94
:0100E10022FC
:04012C008A1F8B207B
:10013000120228AA21EAFF7E00D3940074809480E2
:100140004026EF24FFFDEE34FFFC7F02120173AC6A
:100150001FAD20CFCDCFCECCCE120042EF54012424
:0801600030FF12021E1A80CDCF
:010168002274
:0300000002026990
:0C026900787FE4F6D8FD75812102019A2F
:10000300BB010CE58229F582E5833AF583E02250B2
:1000130006E92582F8E622BBFE06E92582F8E222FC
:0D002300E58229F582E5833AF583E4932216
:10003000EF8DF0A4A8F0CF8CF0A428CE8DF0A42EE4
:02004000FE229E
:10004200BC000BBE0029EF8DF084FFADF022E4CCA2
:10005200F875F008EF2FFFEE33FEEC33FCEE9DEC6B
:10006200984005FCEE9DFE0FD5F0E9E4CEFD22EDB1
:10007200F8F5F0EE8420D21CFEADF075F008EF2FFB
:10008200FFED33FD4007985006D5F0F222C398FDEC
:050092000FD5F0EA2289
:00000001FF
